S01F000045495F425249434B4D4C5F46575F4932435F55534248532E7372656317
S31500000000B8A600200D82000039800000110E000005
S31500000010210E0000310E0000410E0000510E0000BE
S31500000020000000000000000000000000BD150000F8
S315000000300982000000000000D51500003D160000F2
S31500000040A1790000917D0000217D0000C5670000B8
S31500000050396700005168000091680000712D0000AA
S31500000060A12D0000D52D0000F52D0000152E000055
S315000000703D6900007D6A00001D740000597500008E
S31500000080457600000977000000000000000000002F
S31500000090000000000000000000000000000000005A
S315000000A0000000000000000000000000000000004A
S315000000B0000000000000000000000000000000003A
S315000000C0000000000000000000000000000000002A
S315000000D0000000000000000000000000000000001A
S315000000E0000000000000000000000000000000000A
S315000000F000000000000000000000000000000000FA
S3150000010000000000000000000000000000000000E9
S3150000011000000000000000000000000000000000D9
S3150000012000000000000000000000000000000000C9
S3150000013000000000000000000000000000000000B9
S3150000014000000000000000000000000000000000A9
S315000001500000000000000000000000000000000099
S315000001600000000000000000000000000000000089
S315000001700000000000000000000000000000000079
S315000001800000000000000000000000000000000069
S315000001900000000000000000000000000000000059
S315000001A00000000000000000000000000000000049
S315000001B00000000000000000000000000000000039
S315000001C0FFFFFFFFFFFFFFFFFFFFFFFFFFFFFFFF39
S315000001D0FFFFFFFFFFFFFFFFFFFFFFFFFFFFFFFF29
S315000001E0FFFFFFFFFFFFFFFFFFFFFFFFFFFFFFFF19
S315000001F0FFFFFFFFFFFFFFFFFFFFFFFFFFFFFFFF09
S3150000020010B5054C237833B9044B13B1044800E00C
S3150000021000BF0123237010BDD8020020000000009B
S3150000022028C0000008B5034B1BB10349034800E092
S3150000023000BF08BD00000000DC02002028C000004E
S31500000240034628B121B11AB10020C3E90012704754
S3150000025003207047FFFFFFFF2DE9F04385B020B371
S315000002600E4611B3174602B303680546002B00F08D
S3150000027086804268002A00F082809A6818684421C5
S31500000280136901229847044658B92A688DF80C006C
S31500000290916803468C68106803A90122A0470446AA
S315000002A040B1204605B0BDE8F0830324204605B0E2
S315000002B0BDE8F0834FF47A78034601226868082186
S315000002C0CDF8008008F04EF902075DD5652009F0EB
S315000002D0BBFB2A682346D2F808C01068DCF80490F5
S315000002E0042203A9C8470028DBD103460122686817
S315000002F00421CDF8008008F035F9430744D59DF870
S315000003000C309DF80D0003F03F0300EB032007EED1
S31500000310900AF8EEE77A17EE900A0AF011FA1CA393
S31500000320D3E900230AF08EFB00221D4B0AF060FA87
S315000003300AF070FC9DF80E2003469DF80F003B6006
S3150000034000EB0220C0F38D0007EE900AF8EEE77A84
S3150000035017EE900A0AF0F4F90DA3D3E900230AF088
S3150000036071FB0DA3D3E900230AF042FA00220D4BDC
S315000003700AF086F80AF04EFC0024306091E7072464
S31500000380204605B0BDE8F08312248AE7AFF300806B
S315000003900000000080FFCF400000000000A0644085
S315000003A00000594000004440002070472DE9F0410C
S315000003B0B1F5805F0C4605461746037982B00FD328
S315000003C0012B1ED101AE3B780022022130468DF86A
S315000003D004408DF8053000F051FF02B0BDE8F08111
S315000003E0002BEFD00022072301AE022130468DF804
S315000003F005208DF8043000F041FF0028EDD128716A
S31500000400E1E707234FF0010801AE00220221304642
S315000004108DF804308DF8058000F030FF0028DCD11F
S3150000042085F80480CFE700BF10B50223044682B0EA
S315000004303E2101AA8DF80430FFF7B8FFE3689A68F9
S315000004401868D36998470023236002B010BD00BF27
S31500000450002310B582B03D2101AA04468DF8043070
S31500000460FFF7A4FF08B102B010BD80233F2120464C
S3150000047001AA8DF80430FFF799FF0028F3D18DF813
S3150000048004003E21204601AAFFF790FF0028EAD18A
S3150000049041F20A012046621DFFF788FF0028E2D1DB
S315000004A041F20B012046A21DFFF780FF0028DAD19A
S315000004B041F209012046E21DFFF778FF0028D2D15C
S315000004C04021204604F10A02FFF770FF0028CAD136
S315000004D03B21204604F10902FFF768FF0028C2D13C
S315000004E00C233D21204601AA8DF80430FFF75EFF5C
S315000004F0B9E700BF38B50B464FF0030C044600229F
S3150000050009689D68C160998880F804C001824561C8
S31500000510587B93F80CC000F018000CF0070C40EA6A
S315000005200C002072187C93F80FC000F038000CF015
S31500000530070C40EA0C00A2716071D87C93F812C0D7
S3150000054000F018000CF0070C40EA0C00E071187D72
S3150000055000F00300A072D87D93F815C020F07F004C
S315000005600CF0100C40EA0C0093F816C093F811E05A
S315000005700CF0040C40EA0C0093F80EC00EF00203D7
S3150000058003430CF0010003436372AB6828681B6ADF
S3150000059098470A2009F058FA636901229868218A67
S315000005A0056A1868A84740F2523009F04DFA20460D
S315000005B0FFF74EFF08B9014B236038BD95841376CB
S315000005C038B504464369018A9D68002218682B6A7B
S315000005D098470A2009F038FA6369218A9868012247
S315000005E0056A1868A84740F2523009F02DFA2046ED
S315000005F0BDE83840FFF72CBF70B503790D4682B0D1
S31500000600E3B901AE01223423304611468DF8043099
S3150000061000F034FE08B102B070BD02460121684602
S3150000062000F056FE0028F6D19DF9003007EE903A0C
S31500000630F8EEE77AC5ED007A02B070BD0022072316
S3150000064001AE0446022130468DF805208DF80430AF
S3150000065000F014FE0028DED12071D3E7F0B51C4669
S3150000066003790E46154685B0002B55D1012220236D
S31500000670114601A88DF8043000F000FE08B105B05F
S31500000680F0BD082102460DEB010000F021FE002816
S31500000690F5D19DF809209DF808309DF80AC003EBB6
S315000006A002231BB206EE103A9DF80B309DF80F2080
S315000006B00CEB032C0FFA8CF306EE903A9DF80CC067
S315000006C09DF80D30DFED1C5A0CEB032C0FFA8CF362
S315000006D007EE103A9DF80E30B8EEC66A03EB022319
S315000006E01BB207EE903AF8EEE66AB8EEC77AF8EE75
S315000006F0E77A26EE256A66EEA56A27EE257A67EE84
S31500000700A57A0A9B86ED006AC5ED006A84ED007A3B
S31500000710C3ED007A05B0F0BD07230022074602218B
S3150000072002A88DF808308DF8092000F0A7FD0028F2
S31500000730A5D138719AE700BF00008038F0B51C4695
S3150000074003790E46154685B0002B3CD101220E23B7
S31500000750114601A88DF8043000F090FD08B105B0EF
S31500000760F0BD0246062102A800F0B2FD0028F6D12F
S315000007709DF809209DF808309DF80AC003EB022376
S315000007801BB207EE903A9DF80B30F8EEE76A0CEBD9
S31500000790032C0FFA8CFC07EE90CA9DF80D309DF8DD
S315000007A00CC0B8EEE77A0CEB032C0FFA8CFC07EEC4
S315000007B090CAF8EEE77AC6ED006A85ED007AC4EDD8
S315000007C0007A05B0F0BD072300220746022102A8E1
S315000007D08DF808308DF8092000F050FD0028BED1B4
S315000007E03871B3E7F0B51C4603790E46154685B059
S315000007F0002B3CD101220823114601A88DF80430B4
S3150000080000F03CFD08B105B0F0BD0246062102A885
S3150000081000F05EFD0028F6D19DF809209DF808300D
S315000008209DF80AC003EB02231BB207EE903A9DF82F
S315000008300B30F8EEE76A0CEB032C0FFA8CFC07EE94
S3150000084090CA9DF80D309DF80CC0B8EEE77A0CEB17
S31500000850032C0FFA8CFC07EE90CAF8EEE77AC6ED89
S31500000860006A85ED007AC4ED007A05B0F0BD072375
S3150000087000220746022102A88DF808308DF80920CB
S3150000088000F0FCFC0028BED13871B3E7F0B51C4679
S3150000089003790E46154685B0002B3CD10122142360
S315000008A0114601A88DF8043000F0E8FC08B105B047
S315000008B0F0BD0246062102A800F00AFD0028F6D186
S315000008C09DF809209DF808309DF80AC003EB022325
S315000008D01BB207EE903A9DF80B30F8EEE76A0CEB88
S315000008E0032C0FFA8CFC07EE90CA9DF80D309DF88C
S315000008F00CC0B8EEE77A0CEB032C0FFA8CFC07EE73
S3150000090090CAF8EEE77AC6ED006A85ED007AC4ED86
S31500000910007A05B0F0BD072300220746022102A88F
S315000009208DF808308DF8092000F0A8FC0028BED10B
S315000009303871B3E7F0B51E4603790C46154685B007
S31500000940002B44D101221A23114601A88DF8043048
S3150000095000F094FC08B105B0F0BD0246062102A8DD
S3150000096000F0B6FC0028F6D19DF809209DF8083065
S315000009709DF80AC003EB02231BB206EE903A9DF8DF
S315000009800B309FED1A6A0CEB032C0FFA8CF307EE73
S31500000990103A9DF80CC09DF80D30F8EEE66A0CEBA7
S315000009A0032C0FFA8CF307EE903AB8EEC77AF8EEFE
S315000009B0E77A66EE866A27EE067A67EE867AC6EDEF
S315000009C0006A85ED007AC4ED007A05B0F0BD072314
S315000009D000220746022102A88DF808308DF809206A
S315000009E000F04CFC0028B6D13871ABE70000803D22
S315000009F0002370B584B0019383790446013B092B2B
S31500000A000DD8DFE803F00C0C170C0C0C240C1905A0
S31500000A102A4B01A9186808F0C7F9012800D100BFC0
S31500000A20019B3BB14FF08052254B5A60BFF34F8F6D
S31500000A30BFF36F8F04B070BD224A0023106804F123
S31500000A40080101AA08F040F90128E9D1E7E71E4D9F
S31500000A5002A92B6F9847BDF8083003F47F43B3F51E
S31500000A60005F1DD0B3F5045F21D0A38903F47F4353
S31500000A70B3F5085FD4D1154E022231462046AB6C41
S31500000A8098470028CCD1E2893388C2F3400162F34B
S31500000A90000333803288019B61F341023280C0E754
S31500000AA0AB6C072220460A499847019BB9E7EB6CD5
S31500000AB00722204606499847019BB2E79405002085
S31500000AC000ED00E0F80400204CBD0000F802002014
S31500000AD07C01002038B50B4B0B491B680B48984727
S31500000AE0054660B90A4C2388DA0705D4012008F0C8
S31500000AF0ABFF2388DB07F9D50122064B1A7028467F
S31500000B0038BD00BF4CBD0000ACB90000340B00205E
S31500000B10F8020020F402002070B50C460146134886
S31500000B208023C568164612482246A847054660B97E
S31500000B306EB1721C0F4B0FD0A10A02311868C9B2F0
S31500000B4008F04AFA01280DD01225284670BD01206A
S31500000B5008F07AFF284670BD3146186808F03CFA5E
S31500000B600128F2D100BF284670BD00BF4CBD000071
S31500000B70340B0020940500202DE9F04F1D4B83B067
S31500000B801B78019083B364298A4626D900251A4B1F
S31500000B90DFF87090D3F80C80184FAAEB050BBBF169
S31500000BA0640F28BF4FF0640B019B5E1980235A46E1
S31500000BB031463846C04704460028F7D10221D9F805
S31500000BC0000008F009FA0128F0D100BF6435AA45F3
S31500000BD0E3D8204603B0BDE8F08F0024FFF79CFF62
S31500000BE0204603B0BDE8F08F054C204603B0BDE8B3
S31500000BF0F08F00BFF40200204CBD0000340B002033
S31500000C00925F010094050020F8B5134B1B7803B3DF
S31500000C100D46124F0146BC68164680232A681048C6
S31500000C20A047044688B90F4B3246186829462C60FF
S31500000C3008F018F9012806D0214680223B690848A9
S31500000C4098472C6014242046F8BD40F2DC54204618
S31500000C50F8BD054C2046F8BDF40200204CBD00004E
S31500000C60340B0020F8040020925F010038B50E4DC9
S31500000C70286090B1044605F1080007F04FFC0346D2
S31500000C8005F1240101206B6008F006F8D4E9011390
S31500000C9002461B682068EA669847592201200349E4
S31500000CA000F09EF82D6738BDFC02002020B700003A
S31500000CB0F0B5284C83B0662207460E460120264929
S31500000CC000F08EF8206F6622001BB0FA80F02249F1
S31500000CD0400900F085F84FF47A71E06E08F07CF96F
S31500000CE0012808D04FF47A71E06E08F075F90128F2
S31500000CF017D003B0F0BD23680546996818683246D8
S31500000D008B6839469847D8B10023E06E19461A46D3
S31500000D1007F000FF4FF47A71E06E08F05DF90128E4
S31500000D20E7D131464FF47A723846FFF725FF0023A4
S31500000D301A461946E06E03B0BDE8F04007F0EABE79
S31500000D404FF47A71034600912A460421606807F041
S31500000D5009FCD9E7FC02002020B700000FB40021EF
S31500000D6030B5A3B026AC54F8045B7C2203A80291EC
S31500000D7009F0B3FF23462A46802102A801940AF00F
S31500000D801DF802A809F0E6FF014602A8C9B2FFF75E
S31500000D908FFF23B0BDE8304004B0704702464FF0E5
S31500000DA0010C00B5064B127983B059680CFA02F2B1
S31500000DB001AB044809F048FB03B05DF804FB00BF33
S31500000DC0FC0200200187000010B5044C201D07F02E
S31500000DD0A5FB03460020236010BD00BF7003002062
S31500000DE000B1704710B514469CB00B46034A642107
S31500000DF0009403A809F07AFF1CB010BD3CB70000B0
S31500000E0008B1DB2303600148704700BF54B70000F8
S31500000E103E2200200149FFF7E3BF00BF30B80000C3
S31500000E203E2200200149FFF7DBBF00BF30B80000BB
S31500000E303E2200200149FFF7D3BF00BF30B80000B3
S31500000E403E2200200149FFF7CBBF00BF30B80000AB
S31500000E503E2200200149FFF7C3BF00BF30B80000A3
S31500000E60022800D0704708B5044B0548596805F0BC
S31500000E70D9FFBDE80840FFF7A7BF00BF54B900007F
S31500000E80F0040020034B01229B6840F608211B6AF0
S31500000E900148184754B90000F0040020054B10B46F
S31500000EA098680022046A40F60821186823465DF80F
S31500000EB0044B184754B90000054B10B4986801223A
S31500000EC0046A40F60821186823465DF8044B184763
S31500000ED054B9000010B40B4B1A786AB94FF0010CE4
S31500000EE009498C680868246A83F800C040F608211E
S31500000EF023465DF8044B18474FF0000C01220249C7
S31500000F00EFE700BF8401002054B90000064B70B51E
S31500000F101D689C6828462268596890472846636879
S31500000F20BDE87040184700BF34B90000F8B5FFF7B8
S31500000F30D1FFFFF7EBFF2C48FFF798FE0020FFF7E5
S31500000F405FFF04460020FFF75BFF09F003FF014641
S31500000F502046C9B2FFF7ACFEFFF7BCFD00B101BEEB
S31500000F60224D4FF47A7008F06FFD08F095FDAC46FF
S31500000F701F4F01260FCFACE80F000FCFACE80F00D4
S31500000F8097E80F00ACE807002CF8023B1B0C8CF826
S31500000F900030284609F0DEFE002201462846FFF70B
S31500000FA0EBFD0020FFF72CFF07460020FFF728FF88
S31500000FB009F0D0FE01463846C9B2FFF779FEFFF7C1
S31500000FC089FF00230B4C2B7021464FF0FF32284639
S31500000FD02660FFF719FE0028F6D16422284621680C
S31500000FE0FFF7CAFDF0E700BF60B9000098030020D4
S31500000FF048B8000094030020144B70B59D681E6825
S315000010002A68304659689047E8B90122442130469B
S315000010102B699847044600210D4B5022C3E9001165
S31500001020C3E902110B4809F058FE0B4807F076FA9F
S3150000103002460A4B0A481A6007F070FA0246094B44
S3150000104020461A6070BD0446E5E700BF04BC0000F8
S315000010507C0400202C040020A00400209C04002016
S31500001060C0040020BC0400202DE9F04F2DED028BBA
S3150000107083B0FFF7C1FF18B1012008F0E5FCFBE7DC
S3150000108008F00AFD684A01466848FFF767FE19211D
S315000010906748FFF70DFE674B01221F689E684421D3
S315000010A0384633699847002840F0B280624B614960
S315000010B01A68624C6248FFF7C3F801222821336997
S315000010C03846984723685F495F489847B0FA80F0EA
S315000010D09FED5E8A9F225E494009FFF781FE6368A5
S315000010E0DFF89481DFF884B1DFF870A1DFF8709142
S315000010F001930B2461E008F0CFFC4B4A01464B48B4
S31500001100FFF72CFEDBED007ABDEEE77A642517EEDD
S31500001110101A05FB01F327EE887A07EE903AF8EEEF
S31500001120E77A77EE677AFDEEE77A4A4817EE902A75
S31500001130FFF714FE08F0B0FC3B4A01463B48FFF7B8
S315000011400DFED8ED007ABDEEE77A17EE101A05FB14
S3150000115001F327EE887A07EE903AF8EEE77A77EE13
S31500001160677AFDEEE77A3C4817EE902AFFF7F6FD20
S3150000117001222821336938469847384B384A39497D
S315000011803148019DA847034637486BBB354BDAED1E
S31500001190006AD3ED007A99ED007AFDEEE66ABDEEBF
S315000011A0C77AFDEEE77A16EE903A17EE102A17EE9A
S315000011B0901AFFF7D3FD013C22D044210122384684
S315000011C033699847424629491D48FFF745F80028E4
S315000011D091D008F061FC144A01461448FFF7BEFDA1
S315000011E02348FFF7BBFDC3E708F056FC0E4A01464D
S315000011F00E48FFF7B3FD1F48FFF7B0FD013CDCD1F9
S31500001200FFF74CFE0A2008F01FFCFFF755FE70E7BB
S3150000121008F042FC044A01460448FFF79FFD1448C3
S31500001220FFF79CFD42E700BF78B800007CB80000DD
S3150000123088B8000004BC00009C040020E0B6000052
S31500001240FC0300201CB90000100400200000C84266
S31500001250B0B80000D0B80000ECB800000C040020C4
S31500001260080400200404002004B90000DC04002067
S31500001270A4B8000010B900002804002030B58C4640
S315000012808646104913460A6883B001320A600E4A40
S31500001290916810688C6862467146A047044668B932
S315000012A04FF47A750949034601220868082100951A
S315000012B007F058F910F0080F08BF1224204603B0B3
S315000012C030BD00BF9804002004BC00009C04002030
S315000012D030B58C468646104913460A6883B00132FB
S315000012E00A600E4A916810684C6862467146A047CB
S315000012F0044668B94FF47A7509490346012208681D
S315000013000421009507F02EF910F0040F08BF1224EF
S31500001310204603B030BD00BF9404002004BC00008A
S315000013209C04002010B504464FF0010C124B2279A4
S3150000133082B01968114801AB0CFA02F209F084F880
S315000013402379022B05D0032B0FD0012B07D002B037
S3150000135010BD0B4A13880133138002B010BD094A31
S3150000136013880133138002B010BD074A1388013376
S31500001370138002B010BD00BF9C040020018700004E
S315000013808E0400208C0400209004002010B500225A
S31500001390032482B00F4B01201146009407F0C4FAD3
S315000013A00D4B186068B1002404210C4B14200C4A24
S315000013B0009407F0B9FA0B4B0146186028B102B049
S315000013C010BD014600F012F8EDE702B0BDE810408E
S315000013D000F00CB89805002094050020FC040020BD
S315000013E044050020F8040020FFF7D0BF00BE704778
S315000013F038B5164C4FF0FF31206807F0EDFD012897
S3150000140003D000212068FFF7F1FF114B1A7802B1D3
S3150000141038BD01220F4D1A70FFF7E6FF2B68013B1E
S315000014202B60002BF4D00023206819461A4607F0DB
S3150000143071FB0128F2D000212068FFF7D7FF2B6847
S31500001440013B2B60002BEED138BD00BF14060020F7
S31500001450100600206006002038B500230C4D0D4C08
S3150000146001214FF480700C4A2B60237007F02CFB8F
S315000014700A4B186038B100F03BF800F071F808F03C
S31500001480F9F9002038BD0146FFF7B0FFF3E700BFCA
S315000014906006002010060020180600201406002012
S315000014A0802330B4034D044C05600C60136030BCDF
S315000014B0704700BF640A002064060020802330B411
S315000014C0034D044C05600C60136030BC704700BFD0
S315000014D0CC0A00206408002000B583B00190FFF715
S315000014E087FF019803B05DF804EBFFF71FBD00BF4F
S315000014F030B501240D480E4A03680E4D85B0191902
S31500001500CDE901250C4B01604FF480720B490C4864
S31500001510009408F0AFF80B4B186008B105B030BD69
S31500001520014605B0BDE83040FFF760BF6006002009
S31500001530B8A600205C0B0020D8B90000A0B90000B6
S31500001540D9140000580B002000B583B00190FFF7B6
S315000015504FFF019803B05DF804EBFFF785BD00BFB0
S3150000156030B501240D480E4A03680E4D85B0191991
S31500001570CDE901250C4B01604FF480620B490C4804
S31500001580009408F077F80B4B186008B105B030BD31
S31500001590014605B0BDE83040FFF728BF60060020D1
S315000015A0B8AA0020080C002040BC0000F4BB0000D4
S315000015B049150000040C002000BEFEE71EF0040FD3
S315000015C00CBFEFF30880EFF30980014908470000DC
S315000015D0611600000F4B1968EFF309821EF0100F19
S315000015E008BF22ED108A22E9F04FEFF30B8342F891
S315000015F0043D0A604FF0100080F31188BFF34F8F4F
S31500001600BFF36F8F08F05EFA4FF0000080F3118889
S3150000161000F002B884A00020074801680A6802CAE0
S3150000162081F30B88B2E8F04F1EF0100F08BFB2EC42
S31500001630108A82F30988704784A0002010B5EFF362
S315000016401184102383F3118808F02CFA18B14FF097
S315000016508052024B5A6084F3118810BD00ED00E001
S31500001660836913F8020C022808D0032840F20542C9
S315000016708CBF002001200249FFF7B2BBFFF7CCBFA9
S3150000168004BD000070B440F8203C4FF080756FF048
S3150000169002040346084E283122F0010240F80C6C81
S315000016A040F8045C40F8244C40F8082C43F8481DE8
S315000016B0184670BC704700BFB9150000EFF31181E2
S315000016C0102383F311880A4A13680133012B136030
S315000016D000D07047074A084B1160586840F2F6423E
S315000016E0C0F30800B0FA80F004494009FFF778BB60
S315000016F0740C0020700C002000ED00E004BD00001A
S3150000170010B5094C40F2FF4220680849003818BF5E
S315000017100120FFF765FB2368013B23601BB9044BDF
S315000017201B6883F3118810BD740C002004BD0000F3
S31500001730700C00200D4B0E4A1B68A2FB03239B096D
S31500001740013BB3F1807F0FD24FF0E0224FF0F00C57
S315000017500020072110B4074C536184F823C05DF8BC
S31500001760044B906111617047704700BF1020002044
S31500001770D34D621000ED00E0F02208B50B4B83F864
S315000017802220FFF7D7FF0A4A536B43F040435363C7
S3150000179062B6BFF36F8FEFF3148C2CF0040C8CF34E
S315000017A01488BFF36F8F02DF00BEFDE700ED00E097
S315000017B000EF00E0EFF30383103B5BB2002B00DA8F
S315000017C0704703F1604303F561434FF4C1620120A2
S315000017D093F800330149FFF703BB00BF04BD0000C7
S315000017E01C4B1B88012B00D0704790F8223010B597
S315000017F0022B0CBF802182218AB0C26804698DF851
S315000018000630038D121B042B03928DF8071013D09C
S31500001810052B1AD0032B14D040F2DC53ADF8083058
S3150000182090F82420C36901A909208DF804200693A5
S3150000183002F044F80AB010BD40F2DE53ADF80830AD
S31500001840EEE70023ADF80830EAE740F2DF53ADF8E3
S315000018500830E5E7900E0020164B1B88012B00D0C0
S31500001860704700B590F822308BB0012B8DF806300A
S315000018701CD0BBB181238DF80730028D40F2DC53BA
S31500001880012A08BF002390F824C0C26901A90A20D2
S315000018908DF804C00692ADF8083002F00FF80BB0D0
S315000018A05DF804FB82238DF80730E6E780238DF888
S315000018B00730E2E7900E002010B5044631B900F07B
S315000018C007FEC30517D54FF4807010BD00F078FEF3
S315000018D0204600F08DFE10F4807F204606D000F0F2
S315000018E0CDFE800A0130800180B210BD00F0DCFE22
S315000018F0C0F30A0010BD204600F01EFE00F07F0077
S3150000190010BD00BF2DE9F843594B90F824700446EA
S3150000191033F817300D469BB2022B52D000F05AFC1A
S315000019202946204600F090FC2946204600F0DAFCC5
S315000019302946204601F0A2FF2946204600F040FE37
S31500001940642207FB02F2DFF8308105EB850302EB28
S31500001950430343445988AE001FFA87F9204600F036
S3150000196063FEB9F1010F6FD07319642607FB06F603
S3150000197006EB430646442046F18800F0B1FE2046B9
S31500001980318900F0C5FE2046002100F019FE2946E7
S31500001990204600F067FF2946204601F05BFF2946F6
S315000019A0204600F001FF2946204600F0C9FC2946E2
S315000019B0204600F0E9FC29462046BDE8F84300F041
S315000019C007BD2C4E56F8210008B106F063FD002332
S315000019D0294646F82530204602F040FF8046294633
S315000019E0204694F8247000F0F5FB2946204600F0C6
S315000019F02BFC2946204600F075FC08F1FF382946E5
S31500001A00204601F03BFF1FFA88F82946204600F0E1
S31500001A10D7FDB8F1010F1FFA87F9DFF85C801CD8F3
S31500001A20642207FB02F205EB850302EB4303434402
S31500001A305988204641F48061598000F0F5FDB9F1DE
S31500001A40010F4FEA85068FD1731908EB4303204631
S31500001A50B3F8681000F000FE86E764230A2207FB4D
S31500001A6003F302FB053343445988AE0076E700BF13
S31500001A70381E00207C0C0020CC0C002070B5364BA4
S31500001A8090F82420054633F812300E469BB2022BFE
S31500001A9058D03146284601F0F1FE3146284600F07E
S31500001AA099FB3146284600F0CFFB3146284600F028
S31500001AB019FC48F22F034FF400420021284600F09B
S31500001AC037FA0021284600F0FDF910F02F04F8D16E
S31500001AD03146284600F074FD2146284600F0A4FD54
S31500001AE02146284600F0B8FD2146284600F0F8FDBC
S31500001AF02146284600F00CFE2146284600F060FDEF
S31500001B003146284600F0AEFE3146284601F0A2FED8
S31500001B103146284600F048FE3146284600F04EFF82
S31500001B203146284600F068FF3146284600F008FC9A
S31500001B303146284600F028FC31462846BDE870406C
S31500001B4000F046BC054C54F8210008B106F0A2FC92
S31500001B50002344F826309CE7381E00207C0C002029
S31500001B6070B501224FF6FF7406460D4600F0E0FE02
S31500001B702946304600F0E4FD013C8306A4B200D4B9
S31500001B8070BD002CF4D170BD70B505461646A2B1E5
S31500001B9064240BE0284600F05BF8013C284600F080
S31500001BA0ABF8A4B20A2001F0DDF8C4B131462846EC
S31500001BB000F046FA8304EDD570BD41EA03041146F0
S31500001BC048F22F0344F4004200F0B2F900212846FF
S31500001BD000F078F900F02F008442F7D1D8E7FF2013
S31500001BE070BD00BF02B1704738B543EA0104114623
S31500001BF048F22F0344F40042054600F099F900210B
S31500001C00284600F05FF900F02F039C42F7D138BD5B
S31500001C1030B504460D4683B0019200F0EDFE29462C
S31500001C202046019A00F006FF2946204603B0BDE88B
S31500001C30304000F0A5BE00BF38B504460D4600F0A2
S31500001C40BDFE29462046BDE8384000F0D5BE00BF9F
S31500001C50094B90F8242033F812309BB2022B01D0A6
S31500001C60002070471AB9054B188880B27047044B9C
S31500001C70188880B2704700BF381E00200000094057
S31500001C8000101140012805D1034A13889BB243F482
S31500001C9080731380704700BF00101140094B90F805
S31500001CA0242033F812309BB2022B00D07047012A51
S31500001CB0FCD1054A138823F480731B041B0C138084
S31500001CC0704700BF381E002000101140084B90F8E6
S31500001CD0242033F812309BB2022B00D07047012A21
S31500001CE0FCD1044A13889BB243F0800313807047EB
S31500001CF0381E002000101140094B90F8242033F8BC
S31500001D0012309BB2022B01D0002070471AB9054B46
S31500001D10988880B27047044B988880B2704700BF9D
S31500001D20381E00200000094000101140094B90F8B1
S31500001D30242033F812309BB2022B01D000207047CA
S31500001D401AB9054B188980B27047044B188980B2BE
S31500001D50704700BF381E00200000094000101140E7
S31500001D60064B90F8242033F812309BB2022B00D099
S31500001D707047002AFCD0024B99817047381E00201C
S31500001D8000101140084B90F8242033F812309BB213
S31500001D90022B01D0002070470029FBD1012AF9D17E
S31500001DA0024B5869704700BF381E002000101140D2
S31500001DB0074B90F8240033F810309BB2022B00D06A
S31500001DC070470029FCD1012804BF024B5A617047B5
S31500001DD0381E002000101140094B90F8242033F8DB
S31500001DE012309BB2022B01D0002070470029FBD194
S31500001DF0012A0BBF034B044BD88A988A80B27047DE
S31500001E00381E00200010114000000940134B90F8C6
S31500001E10240033F810309BB2022B05D0012914D0D0
S31500001E2002290FD059B170470128F7D1012912D0E4
S31500001E3002290DD00029F6D1094BDA827047094BE9
S31500001E409A827047074B9A837047064B1A837047EE
S31500001E50034BDA83E7E7024B5A837047381E0020AC
S31500001E600010114000000940134B90F8240033F88D
S31500001E7010309BB2022B05D0012914D002290FD0B5
S31500001E8059B170470128F7D1012912D002290DD086
S31500001E900029F6D1094BDA757047094B1A75704758
S31500001EA0074B1A777047064B1A767047034BDA775B
S31500001EB0E7E7024BDA767047381E00200010114023
S31500001EC000000940134B90F8242033F812309BB2DF
S31500001ED0022B1CD1012912D0022907D10E490F4B22
S31500001EE0012A18BF0B46188880B2704779B90C4989
S31500001EF00C4B012A18BF0B46188880B270470A4956
S31500001F000A4B012A18BF0B46188880B27047002377
S31500001F101B88FFDE381E00202C0009402C101140C3
S31500001F2020000940201011402800094028101140C7
S31500001F3010B5194C90F824E034F81E0080B202283F
S31500001F4026D101291CD0022907D114491448BEF113
S31500001F50010F0CBF8C46844607E0C9B911491248E7
S31500001F60BEF1010F0CBF8C468446BCF8001003EA94
S31500001F7002008AB222EA03030343ACF8003010BD24
S31500001F800A490B48BEF1010F0CBF8C468446ECE7AC
S31500001F9000231B88FFDE00BF381E00202C101140D6
S31500001FA02C00094020101140200009402810114043
S31500001FB02800094010B41B4C90F8240034F8103067
S31500001FC09BB2022B04D1012926D002291ED0B9B119
S31500001FD0002134F810309BB2022B02D05DF8044B7E
S31500001FE070470B8823F440631B041B0C0B80002AEC
S31500001FF0F4D00B885DF8044B9BB21A430A807047F5
S3150000200009490A4B012818BF1946E2E70849094B56
S31500002010012818BF1946DCE70749084B012818BFF5
S315000020201946D6E7381E002020101140200009402E
S315000020302C1011402C00094028101140280009409E
S31500002040164B90F8242033F812309BB2022B21D184
S31500002050012917D0022907D11149124B012A18BFAD
S315000020600B46188880B27047A1B903F180430E4928
S3150000207003F5881303F58153012A18BF0B46188808
S3150000208080B2704709490A4B012A18BF0B461888C7
S3150000209080B2704700231B88FFDE00BF381E002079
S315000020A02E0009402E101140220009402A00094046
S315000020B02A101140144B90F8242033F812309BB2AA
S315000020C0022B1DD1012915D0022905D10F49104B2C
S315000020D0012A18BF194605E091B90E490E4B012A8F
S315000020E018BF19460B886FEA43436FEA53439BB206
S315000020F00B80704709490A4B012A18BF1946F1E7B8
S3150000210000231B88FFDE00BF381E00202E10114062
S315000021102E00094022101140220009402A101140C9
S315000021202A000940174B90F8242033F812309BB24E
S31500002130022B24D1012919D0022908D1124B1349A7
S31500002140012A18BF0B464FF480421A807047B1B976
S3150000215003F180430E4903F5881303F58153012AE1
S3150000216018BF0B464FF480421A807047094B0A4944
S31500002170012A18BF0B464FF480421A80704700238D
S315000021801B80FFDE381E00202E1011402E00094055
S31500002190220009402A1011402A0009400A4B90F8F3
S315000021A0242033F812309BB2022B00D07047012353
S315000021B03AB1064AD08E03FA01F1014389B2D186BB
S315000021C07047034AF6E700BF381E00200010114092
S315000021D0000009400B4B90F8242033F812309BB2D4
S315000021E0022B00D070474AB101220748C38E02FA7B
S315000021F001F19BB223EA0101C1867047012203481F
S31500002200F4E700BF381E002000101140000009400E
S315000022100A4B90F8242033F812309BB2022B00D0E0
S31500002220704701233AB1064A108F03FA01F10143C0
S3150000223089B211877047034AF6E700BF381E0020AF
S3150000224000101140000009400B4B90F8242033F891
S3150000225012309BB2022B00D070474AB101220748C8
S31500002260038F02FA01F19BB223EA0101018770474D
S3150000227001220348F4E700BF381E00200010114079
S3150000228000000940134B90F8242033F812309BB21B
S31500002290022B00D0704710B55AB901230E4C0F48D7
S315000022A024F81120428F03FA01F1114389B24187C4
S315000022B010BD4FF0000E01230748094A01F10A0C30
S315000022C020F81CE003FA01F1538F194389B25187B4
S315000022D010BD00BF381E0020A40C002000000940DD
S315000022E0001011400B4B90F8242033F812309BB2AB
S315000022F0022B00D070474AB101220748438F02FAE9
S3150000230001F19BB223EA010141877047012203488C
S31500002310F4E700BF381E00200010114000000940FD
S3150000232020B9054BB3F8400080B27047034BB3F8B1
S31500002330400080B2704700BF000009400010114005
S315000023400E4B90F8242033F812309BB2022B00D0AB
S315000023507047012342B903FA01F1C943084AC1F3A0
S315000023600901A2F84610704703FA01F1C943054A6C
S31500002370C1F30901A2F84610704700BF381E0020BD
S3150000238000000940001011400E4B90F8242033F84D
S3150000239012309BB2022B00D07047012342B903FAD8
S315000023A001F1C943084AC1F30901A2F84810704770
S315000023B003FA01F1C943054AC1F30901A2F848101D
S315000023C0704700BF381E0020000009400010114071
S315000023D00E4B90F8242033F812309BB2022B00D01B
S315000023E07047012342B903FA01F1C943084AC1F310
S315000023F00901A2F84A10704703FA01F1C943054AD8
S31500002400C1F30901A2F84A10704700BF381E002028
S3150000241000000940001011400A4B90F8242033F8C0
S3150000242012309BB2022B01D00020704722B9064B16
S31500002430B3F84C0080B27047044BB3F84C0080B23E
S31500002440704700BF381E00200000094000101140F0
S3150000245020B9054BB3F8540080B27047034BB3F86C
S31500002460540080B2704700BF0000094000101140C0
S3150000247020B9054BB3F8560080B27047034BB3F84A
S31500002480560080B2704700BF00000940001011409E
S3150000249020B9054BB3F8580080B27047034BB3F828
S315000024A0580080B2704700BF00000940001011407C
S315000024B020B9054BB3F85A0080B27047034BB3F806
S315000024C05A0080B2704700BF00000940001011405A
S315000024D00A4B90F8242033F812309BB2022B01D01D
S315000024E00020704722B9064BB3F85C0080B27047F3
S315000024F0044BB3F85C0080B2704700BF381E002062
S315000025000000094000101140084B90F8242033F8D1
S3150000251012309BB2022B00D070471AB9044BA3F8B5
S315000025205C107047034BA3F85C107047381E002000
S3150000253000000940001011400A4B90F8242033F89F
S3150000254012309BB2022B01D00020704722B9064BF5
S31500002550B3F85E0080B27047044BB3F85E0080B2F9
S31500002560704700BF381E00200000094000101140CF
S31500002570084B90F8242033F812309BB2022B00D07F
S3150000258070471AB9044BA3F85E107047034BA3F8C3
S315000025905E107047381E00200000094000101140F0
S315000025A020B9054BB3F8600080B27047034BB3F80F
S315000025B0600080B2704700BF000009400010114063
S315000025C0084B90F8242033F812309BB2022B00D02F
S315000025D070471AB9044BA3F864107047034BA3F86D
S315000025E064107047381E002000000940001011409A
S315000025F00A4B90F8242033F812309BB2022B01D0FC
S315000026000020704722B9064BB3F8680080B27047C5
S31500002610044BB3F8680080B2704700BF381E002034
S315000026200000094000101140084B90F8242033F8B0
S3150000263012309BB2022B00D070471AB9044BA3F894
S3150000264068107047034BA3F868107047381E0020C7
S315000026500000094000101140064B90F8242033F882
S3150000266012309BB2022B04D1012A04BF024BA3F8FD
S315000026706A107047381E002000101140084B90F871
S31500002680240033F810309BB2022B01D00020704793
S315000026900028FCD0034BB3F86A0080B2704700BF35
S315000026A0381E0020001011400A4B90F8242033F801
S315000026B012309BB2022B01D00020704722B9064B84
S315000026C0B3F86C0080B27047044BB3F86C0080B26C
S315000026D0704700BF381E002000000940001011405E
S315000026E0084B90F8242033F812309BB2022B00D00E
S315000026F070471AB9044BA3F86C107047034BA3F844
S315000027006C107047381E0020000009400010114070
S31500002710084B90F8242033F812309BB2022B00D0DD
S3150000272070471AB9044BA3F86E107047034BA3F811
S315000027306E107047381E002000000940001011403E
S315000027404FF0000C134B90F8242082B0ADF806C071
S3150000275033F812309BB2022B04D0BDF8060080B2CB
S3150000276002B0704762B181B10B4B03EB41010B889C
S315000027709BB2ADF80630BDF8060080B202B07047D5
S3150000278029B1064B03EB4101F1E70549EFE705499E
S31500002790EDE700BF381E00206E1011406E000940A4
S315000027A060101140600009400B4B90F8242033F86C
S315000027B012309BB2022B00D0704742B1074B03EB9D
S315000027C041010B889BB243F400530B807047044BC6
S315000027D003EB4101F5E700BF381E00206E101140E3
S315000027E06E0009400D4B90F8242033F812309BB24E
S315000027F0022B00D0704742B9094A32F811309BB219
S3150000280043F4007322F811307047064A32F811304B
S315000028109BB243F4007322F811307047381E002033
S315000028206E0009406E1011400B4B90F8242033F8CF
S3150000283012309BB2022B00D070474AB1074B03EB14
S3150000284041010B8823F400731B041B0C0B8070479B
S31500002850034B03EB4101F4E7381E00206E101140D4
S315000028606E000940174B90F8242033F812309BB2C3
S31500002870022B00D070474AB9D9B9134AB2F8603072
S315000028809BB243F48073A2F86030704741B90F4A97
S31500002890B2F860309BB243F48073A2F860307047A0
S315000028A00B4A32F811309BB243F4807322F8113090
S315000028B0E0E7084A32F811309BB243F4807322F8FD
S315000028C011307047381E00200000094000101140EA
S315000028D06E1011406E000940104B90F8240033F83A
S315000028E010309BB2022B00D0704770B191B10C4BE7
S315000028F003EB41010B8823F003031B041B0C0B8025
S315000029000B889BB21A430A80704729B1054B03EB2B
S315000029104101EFE70449EDE70449EBE7381E0020E3
S315000029206E1011406E0009406010114060000940B1
S315000029300E4B90F8240033F810309BB2022B00D0D7
S31500002940704748B169B10A4B03EB41010B889BB252
S3150000295023EA02020A80704729B1064B03EB4101C4
S31500002960F4E70549F2E70549F0E700BF381E002005
S315000029706E1011406E000940601011406000094061
S315000029800B4B90F8242033F812309BB2022B00D068
S31500002990704742B1074A89000A4413889BB243F440
S315000029A0007313807047044A89000A44F5E700BFA4
S315000029B0381E00208C1011408C0009400B4B90F8FB
S315000029C0242033F812309BB2022B00D070474AB154
S315000029D0074A89000A44138823F400731B041B0C5E
S315000029E013807047034A89000A44F4E7381E002022
S315000029F08C1011408C0009400B4B90F8242033F8C2
S31500002A0012309BB2022B00D0704742B1074A8900B0
S31500002A100A4413889BB243F4807313807047044AB8
S31500002A2089000A44F5E700BF381E00208C101140CB
S31500002A308C000940094B90F8240033F810309BB203
S31500002A40022B00D0704720B1054B89000B441A8039
S31500002A507047044B89000B44F9E700BF381E00207D
S31500002A608E1011408E000940012807D1044AB2F8A1
S31500002A7002319BB243F48043A2F80231704700BF93
S31500002A8000101140012808D1044AB2F8023123F49B
S31500002A9080431B041B0CA2F8023170470010114042
S31500002AA0124B5A6870B911051CD5EFF3108101223B
S31500002AB082F310885A6822F400625A605B6881F3D8
S31500002AC010887047D2040DD5EFF31081012282F3EE
S31500002AD010885A6822F480525A605B6881F3108825
S31500002AE00020704740F2DD50704700BF00400840AC
S31500002AF000283BD180223C4B1881A3F86020A3F824
S31500002B007000A3F87200A3F87400A3F87600A3F887
S31500002B107800A3F87A00A3F87C00A3F87E00A3F857
S31500002B208000D88618875887188658861A8822F013
S31500002B3010021204120C1A801A8822F020021204C3
S31500002B40120C1A801A8822F001021204120C1A8042
S31500002B501A8822F040021204120C1A80A3F84600CA
S31500002B60A3F84800A3F84A000020704700228021FD
S31500002B701E4B00201A81A3F86010A3F87020A3F85A
S31500002B807220A3F87420A3F87620A3F87820A3F87F
S31500002B907A20A3F87C20A3F87E20A3F88020DA868A
S31500002BA01A875A871A865A86198821F0100109044D
S31500002BB0090C1980198821F020010904090C1980D3
S31500002BC0198821F001010904090C1980198821F0DE
S31500002BD040010904090C1980A3F84620A3F84820EF
S31500002BE0A3F84A20704700BF0000094000101140BA
S31500002BF010B50446FFF77CFFACB91B4B5A681205AB
S31500002C0028D45A681405C2F3C02026D4EFF31081E5
S31500002C10012282F310885A6842F400625A605B68A7
S31500002C2081F3108810BD012C1AD10F4B5A68D104BC
S31500002C3010D45A68C2F30030D2040ED4EFF31081D8
S31500002C4084F310885A6842F480525A605B6881F3B4
S31500002C50108810BD40F2DC5010BD4FF4BC6010BDB2
S31500002C6040F2E25010BD00BF00400840F0B530B35E
S31500002C70012800D0F0BD91F91020CB7D02F160440F
S31500002C801B01DBB204F5614484F80033314C324B4E
S31500002C9044F8221002F1C00153F821406FF31044AA
S31500002CA043F8214053099B0002F01F0203F16043E1
S31500002CB0904003F56143C3F880011860F0BD4FF002
S31500002CC0010C264B264DD3F80024224E60F3041245
S31500002CD0C3F800240A7D91F90D3012011E4CEF183D
S31500002CE0D2B287F8002303F1C00E46F823105A0922
S31500002CF054F82E70920003F01F0302F1604202F5B1
S31500002D0061420CFA03F360F3104744F82E70C2F8E0
S31500002D1080311360CB7C91F90C201B011544DBB28A
S31500002D2085F8003346F8221002F1C00154F821500C
S31500002D3053099B0002F01F0203F1604360F3104544
S31500002D400CFA02F203F5614344F82150C3F88021DE
S31500002D501A60F0BD841E002000600040000009409B
S31500002D6000E100E0012105F033B900BF06F06CBEBA
S31500002D70EFF30383103B084A5BB2C03352F82310CB
S31500002D8006486FF3104142F8231003889BB2012BCB
S31500002D9000D1704701F0C4BC00600040381E00201E
S31500002DA010B4EFF30383103B084A5BB203F1C00192
S31500002DB052F82100064C6FF3104042F8210054F8F7
S31500002DC023305DF8044B987800F050BB006000405B
S31500002DD0841E0020EFF30383103B054A5BB2C03329
S31500002DE052F823106FF3104142F82310704700BFCA
S31500002DF000600040EFF30383103B054A5BB2C0332B
S31500002E0052F823106FF3104142F82310704700BFA9
S31500002E1000600040EFF30383103B084A5BB2C03307
S31500002E2052F8231006486FF3104142F823104388E6
S31500002E309BB2012B00D1704701F072BC00600040CC
S31500002E40381E00202DE9F043012A0CBF784B794B40
S31500002E500446B3F840E0B3F84660B3F84880B3F8E8
S31500002E604A70B3F830C0D88E1D8F5B8F1FFA85F974
S31500002E709DB200231FFA8EFE1EF47F4F238083B07F
S31500002E80B6B21FFA88F8BFB21FFA8CFC80B20B806C
S31500002E900ED00EEA0C0313F4804F0CD0012A4BF629
S31500002EA0FF720CBF624B634BA3F8402012232380B2
S31500002EB003B0BDE8F08313F4004F0DD113F4005FA7
S31500002EC017D0012A4DF6FF720CBF594B594BA3F888
S31500002ED0402013232380EBE7012A47F6FF720CBF3D
S31500002EE0534B544BA3F840201123238003B0BDE875
S31500002EF0F08313F4805F12D1304013F480761BD038
S31500002F0010F0010F18D0012A40F2FE320CBF484BD8
S31500002F10484BA3F84620012323800B80C8E7012AEB
S31500002F204EF6FF720CBF424B424BA3F840201423CF
S31500002F302380A1F800E0BBE713F4806C07EA0507DD
S31500002F400ED0FD070CD5012A40F2FE320CBF384BDD
S31500002F50384BA3F84A200222012322800B80A7E7E0
S31500002F6013F4007E08EA09050FD015F0010F0CD006
S31500002F70012A40F2FE320CBF2D4B2E4BA3F84820FF
S31500002F800322012322800B8092E71B051DD466B124
S31500002F90C343012A0CBF264A264AC3F30903A2F8F3
S31500002FA0463001232380088082E7BCF1000F2DD034
S31500002FB0FB43012A0CBF1E4A1E4AC3F30903A2F8AB
S31500002FC04A30022323800F8072E710460191009257
S31500002FD0FFF7A6F90199009A08804FF2FF70012ABF
S31500002FE00CBF134B134BA3F84000152323800B880B
S31500002FF003F00703062B7FF45BAF1046009100F049
S3150000300045FA0023009923800B8051E7BEF1000F9B
S315000030103FF44EAFEB43012A0CBF054A054AC3F302
S315000030200903A2F84830032323800D8040E700BF40
S31500003030001011400000094010B5044600F026FAC1
S315000030402046FFF705FA0246094B20461A80FFF78D
S315000030500FFA0246074B20461A80FFF719FA024676
S31500003060054B20461A80FFF723FA044B188010BD43
S315000030701C1100201E1100200E110020101100202E
S3150000308008B590F82400FFF74BF900F07000A0F1A6
S315000030903000B0FA80F0400908BD00BFFF220F4B98
S315000030A070B51B880E4D012B2A8000D070BD0446DA
S315000030B000F0CCF92046FFF733F910F4804606D12C
S315000030C04306F3D5204600F099F92E8070BDD5232E
S315000030D020462B80BDE8704000F0C8B90A110020D8
S315000030E00C11002038B50F4D04462B8803F47F439E
S315000030F0B3F5407F0AD006D8B3F5807F06D0B3F586
S31500003100007F03D038BDB3F5806FFBD12046002188
S31500003110FEF726FE29882046BDE83840090AFEF754
S315000031201FBE00BF3C11002010B5044690F82400D5
S3150000313000F09CF994F82400BDE8104000F086B930
S315000031400B46022201461846FFF7C6BB02220021A3
S31500003150FFF7C2BB2DE9F0411D4693F824308046A7
S315000031600F46144613BB46083DD002EB460634F81C
S31500003170022B39462846FEF749FEB442F7D118F02D
S31500003180010F2BD0394628460022FEF713FF16F80A
S31500003190012B39462846FEF767FE28464FF4806223
S315000031A03946FEF707FF3046BDE8F081860818D09D
S315000031B002EB860654F8042B39462846FEF7F8FD3E
S315000031C0B442F7D118F0020F1BD118F0010F0CD141
S315000031D04FF4006239462846FEF7ECFE3046BDE85D
S315000031E0F0811646EEE71646C9E73946284600221C
S315000031F0FEF7E0FE3946284616F8012BFEF734FEA8
S31500003200E6E7394628464FF48062FEF7D3FE394694
S31500003210284636F8022BFEF7F9FDD6E72DE9F041F0
S315000032201E4693F8243080460F4614468BB945084F
S3150000323033D002EB450539463046FEF7CDFD24F87E
S31500003240020BAC42F7D118F0010F28D12846BDE891
S31500003250F08185081CD002EB850539463046FEF71D
S3150000326091FD44F8040BAC42F7D108F00308B8F11D
S31500003270000FEBD039463046FEF784FDA84405F82A
S31500003280010B45454FEA1020F9D12846BDE8F081EB
S315000032901546B8F1000FD9D0ECE71546D3E7394605
S315000032A03046FEF799FD05F8010B2846BDE8F0818A
S315000032B02DE9F0410446154610460F462146FEF715
S315000032C04FFC21462846FEF785FF21462846FEF795
S315000032D0BBFF21462846FFF705F821462846FEF79C
S315000032E0ABFC00212846FEF7EDFD00F00F008442FE
S315000032F02DD021462846DFF8688000F0ABFA21463B
S315000033002846FFF751FA58F82460F6B1134B2846C1
S3150000331053F82430214633613785FFF711FA58F800
S3150000332024305D6870852DB1002218461146A847E5
S3150000333058F82430184605F0ADF80020214648F824
S315000033402400BDE8F04100F091BCBDE8F081002307
S3150000335028461A461946FEF745FCCAE7940D002092
S315000033607C0C002010B5064C238803B910BDFFF76E
S315000033707BFB6420FFF7F6FC0023238010BD00BF13
S31500003380780C002010B5064C238803B910BDFFF752
S315000033906BFB6420FFF7E6FC0023238010BD00BF13
S315000033A0780C00200122024B1A80FFF76BBB00BF8E
S315000033B0780C002030B9074A13889BB243F01003FB
S315000033C013807047044A13889BB243F0100313809E
S315000033D0704700BF000009400010114038B9054A87
S315000033E0138823F010031B041B0C13807047024A3A
S315000033F0F6E700BF000009400010114030B9074A47
S3150000340013899BB243F4807313817047044A13896E
S315000034109BB243F480731381704700BF00000940DC
S315000034200010114030B9074A138E9BB243F4804313
S3150000343013867047044A138E9BB243F48043138667
S31500003440704700BF000009400010114038B9054A16
S31500003450138E23F480431B041B0C13867047024A09
S31500003460F6E700BF00000940001011404BF6FF725E
S3150000347018B9044BA3F840207047034BA3F840202B
S31500003480704700BF00000940001011404FF6F77268
S3150000349018B9044BA3F840207047034BA3F840200B
S315000034A0704700BF000009400010114040B9094AAA
S315000034B0B2F860309BB243F00403A2F86030704764
S315000034C0054AB2F860309BB243F00403A2F86030BC
S315000034D0704700BF0000094000101140F8B92E4B9C
S315000034E01A8892B242F480621A801A885205FCD574
S315000034F005224FF480614FF41D40C3F8F0201A886E
S3150000350022F020021204120C1A801A8892B242F09B
S3150000351001021A801984198599851886704710B595
S315000035201E4C0120FFF71EFCE38F012023F0010350
S315000035301B041B0CE387FFF719FCE38F23F0020340
S315000035401B041B0CE387238823F020031B041B0C9E
S31500003550238023889BB243F001032380B4F8023111
S315000035609BB243F48043A4F80231E388DB07FCD521
S315000035704FF470634FF4006200204FF41D416380E6
S31500003580E38F9BB243F48073E38722842285A2856E
S31500003590A4F84000218610BD00000940001011402B
S315000035A048B9094A0129138809D023F010031B04DE
S315000035B01B0C13807047054A01291388F5D19BB26D
S315000035C043F01003138070470000094000101140BB
S315000035D088B90C4AB2F8603023F003031B041B0CB5
S315000035E0A2F86030B2F860309BB231B943F0010303
S315000035F0A2F860307047044AECE743F00203A2F8F1
S31500003600603070470000094000101140104B90F8E0
S3150000361000C033F81C309BB2022B01D0002070474B
S315000036200C4B1B88012B10D000B54FF0010E93B048
S31500003630094B104601AA8DF828C0A3F800E000F057
S31500003640A5FB002013B05DF804FBD520704700BF32
S31500003650381E0020081100203811002030B5224BFA
S31500003660044600789BB033F810308DF848009BB2C2
S31500003670022B02D000201BB030BD0D4671B11B4B92
S315000036801B88012B2BD00124194B2946104609AA69
S315000036901C8000F037FB00201BB030BD002AEED1A5
S315000036A0A38809A8EBB1FFF751FD002590222178E8
S315000036B003AB0C348DF800108DF8032094E803005A
S315000036C0029583E80300ADF8045006F08BFB034631
S315000036D069460820059300F0F1F82846CBE7D52087
S315000036E0C9E700F0C5F8E0E7381E00200811002001
S315000036F038110020C378082B17D810B55B0092B09C
S315000037000B4C0391D9B2615C0A4C90F800C054F896
S31500003710233001A804928DF828C0ADF82610059232
S31500003720029300F045FE12B010BD0020704700BFA6
S315000037302CBD00008C010020C378082B17D85B0035
S3150000374010B503F1010C144C5FFA8CFC14F80CC094
S3150000375092B0BCF1060F0CD1104B0A7803931A7283
S315000037600A22497805925972C3785B0005E0002069
S315000037707047039105921FFA8CFC094901330278C0
S3150000378051F8233001A88DF82820ADF826C0029301
S3150000379000F00EFE12B010BD2CBD00000C02002081
S315000037A08C010020C378082B10D8094A01EB43018D
S315000037B0C9B2515C51B100B593B0037801A88DF838
S315000037C0283000F01BFE13B05DF804FBFF207047A5
S315000037D02CBD0000092900D97047FEF719BD00BFAE
S315000037E0092901D90020704708B5FEF7A9FF00F0A6
S315000037F0030008BD09290FD810B541B10446FEF7EC
S31500003800DFFE2046FEF750FFC0F30A0010BDFEF7AC
S3150000381093FEC0F30A0010BD00207047092901D9A4
S315000038200020704710B50446FEF7CAFE2046FEF794
S31500003830DFFE00F0100010BD092901D900207047F5
S3150000384010B50446FEF7BCFE2046FEF7D1FE00F496
S31500003850404010BD092900D9704738B50C460546C9
S31500003860FEF7C0FF21462846BDE83840FEF7DCBF1C
S31500003870092900D970470122FFF72EB8092900D976
S31500003880704738B50C460546FEF76AF921462846C4
S31500003890BDE838400222FFF74BB800BF08B5FEF777
S315000038A045FA00F00700013880B2032896BF024BA4
S315000038B0002033F8100008BD3CBD00002DE9F0479C
S315000038C08E46374DDFF8E8A0B5F80080887108EB22
S315000038D0C80C0AEB8C0C0F46441EBEE80F00ACE881
S315000038E00F00BEE80F00ACE80F00DEF800304646D9
S315000038F04FEAC809CCF800300C2C14D8DFE804F0E5
S315000039000713071F1F0707342727070707003978FC
S315000039100022244B09EB080053F821300AEB800003
S31500003920114698472E88204B0136A3FB0623DB0859
S3150000393003EB8303A6EB43032B80BDE8F0873978BE
S315000039401A4B33F811309BB2012BE1D1EBE73A78F1
S31500003950144B09EB080053F82230796900220AEB70
S31500003960800098472E88DEE73C78104B33F81430F9
S315000039709BB2012BD7D07A8A09EB08000AEB8000AC
S3150000398032B9084B114653F8243098472E88CAE7B7
S31500003990044B0022796953F8243098472E88C2E7F1
S315000039A0E40D0020141A0020CDCCCCCC381E00200B
S315000039B01C1A002008B5084B1B88012B01D0FF20DC
S315000039C008BD0346002140F25510044A00F036FDBA
S315000039D0034B188808BD00BF0A110020513E0000A5
S315000039E00C110020F0B5012883B02CD1254A13888C
S315000039F09BB21BBB244D254E05F15007A6F11404BE
S31500003A00002204210A2005F00DF844F8040B90B3B7
S31500003A10B442F5D1A5F12804002204210A2005F0BC
S31500003A2001F844F8040F30B3AC42F5D12835BD4255
S31500003A3006F11406E2D1002003B0F0BD53889BB214
S31500003A40002BD7D0F7E7002204210A2004F0EAFF72
S31500003A500F4B186090B104240E48002301904FF4D8
S31500003A6000720D490D48009405F04CFE0128BDD0AA
S31500003A70032003B0F0BD022003B0F0BD012003B067
S31500003A80F0BD00BF381E0020600E0020280E00206A
S31500003A900C0E0020100E002044BD0000493F00001F
S31500003AA038B51D4C34F810309BB2012B07D01B4B98
S31500003AB0186805F059FE1A4B186805F071FB238843
S31500003AC09BB213B163889BB21BBB164DA5F11404C0
S31500003AD054F8040B05F064FBAC42F9D1124C04F126
S31500003AE0280554F8040F05F05BFBAC42F9D10D4CE8
S31500003AF004F1140554F8040B05F052FBAC42F9D15D
S31500003B000A4C04F1280554F8040F05F049FBAC42B1
S31500003B10F9D1002038BD00BF381E0020100E00204D
S31500003B200C0E0020280E0020380E0020600E00200B
S31500003B30B9B138B5002540F6B833AA4208BF1A46CF
S31500003B40094B0D6053F820300C46186805F08AF9C9
S31500003B50012801D0FF2038BD2368002BFAD0284663
S31500003B6038BDFF20704700BF1802002000B583B0A3
S31500003B70019151B10023094A01A952F82020106889
S31500003B801A4604F0C7FF012803D0FF2003B05DF8F2
S31500003B9004FB002003B05DF804FB00BF1802002000
S31500003BA010B5002484B00191039451B10D4A234607
S31500003BB052F8201003AA086801A905F085F8012823
S31500003BC002D0FF2004B010BD03980028FAD04FF0B1
S31500003BD08052054B5A60BFF34F8FBFF36F8F20465D
S31500003BE004B010BD1802002000ED00E030B50C4610
S31500003BF083B090F8245004F04DFC631E082B11D8B6
S31500003C0005EB850104EB4104074D03E0019848B13B
S31500003C1004F040FC002255F8240001A905F022F921
S31500003C200128F3D003B030BD3C0E002070B50C4621
S31500003C3082B090F8245004F02DFC631E042B10D89B
S31500003C4005EB8505084E2C4403E0019848B104F0C5
S31500003C5021FC002256F8240001A905F003F90128E9
S31500003C60F3D002B070BD00BF140E00204B1E082B0F
S31500003C7000D9704710B500EB8002124B01EB4201F0
S31500003C8082B00446002253F8210001A905F0EAF8A3
S31500003C90012801D002B010BD019B002BFAD00A4AC0
S31500003CA0002332F81420094C92B2012A18BF0520CD
S31500003CB054F820001A4601A9006804F02BFF02B050
S31500003CC010BD00BF3C0E0020381E00201802002048
S31500003CD010B54B1E82B0082B01900ED88C460023DF
S31500003CE090F82400064C00EB80000CEB400C1A46C2
S31500003CF054F82C0001A904F00DFF02B010BD00BF5E
S31500003D003C0E002070B50125144600221C4B1D8078
S31500003D101C4B18601C482023016011462046FDF705
S31500003D2061FF00212046FEF7FDF900212046FEF73F
S31500003D304FFB00212246084600F0C6FD0128054635
S31500003D4005D020F00206B6B25EB1284670BD204608
S31500003D500021FFF73FFD20460021FFF789FD284699
S31500003D6070BD31462046FEF78DFA31462046FFF7F4
S31500003D7031FD20463146FFF77BFD284670BD00BF6A
S31500003D8008110020940D0020BC0D002038B5012438
S31500003D900D460F4900230C8014460E4A1946106042
S31500003DA00D481A4605602046FDF71CFF20460021F7
S31500003DB0FEF7B8F920460021FEF7F0F9204600216B
S31500003DC0FFF708FD2046BDE838400021FFF750BD4B
S31500003DD008110020940D0020BC0D002038B50C46BB
S31500003DE000210546184A194B204611801980FEF716
S31500003DF079FA00212046FEF7EDF900212046FEF76C
S31500003E0023FA94F824300021012B0CBF4FF40062F2
S31500003E104FF480622046FEF7CDF825F00203052B0D
S31500003E2007D0082D0AD094F82400BDE83840FFF7E3
S31500003E303DBB2046BDE83840FFF788B92046BDE8BF
S31500003E4038400021FDF78CBE0811002038110020F3
S31500003E50704700BF704700BF03464FF0010C00B526
S31500003E60074A8BB093F82430032001A9A2F800C0BA
S31500003E708DF80430FFF722FD0BB05DF804FB00BFA0
S31500003E80900E0020034600B58BB093F82430042032
S31500003E9001A98DF80430FFF711FD0BB05DF804FBA6
S31500003EA0034600B58BB093F82420DB69052001A9F1
S31500003EB08DF804200693FFF701FD0BB05DF804FBB7
S31500003EC0704700BF094B1A88012A00D070470022AC
S31500003ED000B58BB090F824C001A906208DF804C067
S31500003EE01A80FFF7EBFC0BB05DF804FB900E002088
S31500003EF038B50446458CFFF7C3F801280AD0294691
S31500003F0020461DB1FFF772FE002038BDFFF78EFE7A
S31500003F10002038BD0B4B294653F8252020461AB100
S31500003F20FFF7D6FE002038BD43F82540FFF776FCA4
S31500003F3018B9284600F054FDE6E7284600F096FC3E
S31500003F40E2E700BF7C0C00202DE9F04F814DDFF841
S31500003F5014A2814CDFF81092DFF810827F4F83B0F5
S31500003F604FF47A72052001A9FFF7E2FD0028F7D188
S31500003F706FF4A872019E338C1344042BF0D801A26F
S31500003F8052F823F0C13F0000B93F0000AD3F0000EA
S31500003F90613F0000993F000096F82400FFF7F2F910
S31500003FA0019B93F82400FFF779F8D9E732460821F8
S31500003FB0708CFFF77DF9D3E73046FFF799FFCFE71F
S31500003FC0738C318D013B142BCAD801A252F823F011
S31500003FD0BB400000B3400000AB400000613F000062
S31500003FE0613F0000613F0000613F0000613F00004B
S31500003FF0613F0000613F0000613F0000613F00003B
S31500004000613F0000613F0000613F0000613F00002A
S315000040108F4000007B400000613F000063400000CD
S315000040202540000011F0070B56D1BAF80030012BDD
S3150000403000F088804A4B1B8813F0600F00F08680E2
S315000040402380B9F800306380B8F80030A3803B883D
S31500004050E380EB6A002B83D03246594620469847C8
S315000040607EE701F07003402B32D02AD8102B7FF464
S3150000407077AF304600F05AFF72E76B6A1BB1002239
S315000040803046114698473046FFF74EF868E796F8EF
S315000040902400FDF7F7FD96F8240000F0EBFF40281A
S315000040A0304633D000F06CFF5AE7304600F00EFB86
S315000040B056E7304600F010FB52E7304600F0D6FADD
S315000040C04EE7602B04D001F05002502A7FF448AF2F
S315000040D0304600F099FF43E701F00502012A10D0AF
S315000040E0BBF1050F0DD01E4B1B8813F0600FA7D137
S315000040F00BF1FF31052920D8DFE801F00F13171B5C
S315000041000B1F96F82400FEF797FFECE700F02CFF54
S3150000411026E7304601F0DCF922E7304601F088F860
S315000041201EE7304601F072FB1AE7304601F0CEF981
S3150000413016E7304601F0C8FB12E731460720FFF7C5
S315000041404DFE0DE73046FEF7CDFF73E7304601F032
S315000041502FF805E7941000201411002010110020FC
S315000041601C1100203A1100201E1100200E11002003
S31500004170002110B4054C064B21804FF4FF72054810
S315000041805DF8044B198006F0A8BD00BF9210002010
S315000041900A110020940E00208446044B4FF4FF724F
S315000041A000210348A3F800C006F097BD9210002036
S315000041B0940E0020FF22044B03F1200123F8022F66
S315000041C08B421A84FAD17047C6100020014B9B68B7
S315000041D0187970479410002000B5134B996891F830
S315000041E000E091F802C00EEB0102C9784CEA012CFE
S315000041F0E64514D21FFA8EF34FF0000E51780429CB
S3150000420004D19178814208BF92F803E011780B44FB
S315000042109BB263450A44F1D370465DF804FB4FF048
S31500004220000E70465DF804FB941000202DE9F04165
S31500004230244B9B68DD7893F802E01C780EEB052E84
S315000042401FFA8EFE7445234434D20026A2B2B0462D
S3150000425034461D4F1BE0BCF1050F12D1B44210D2FB
S315000042609D7893F902C005F00F054FEADC7C05EB5B
S315000042700C1508EB040C5FFA8CFC013427F815C00A
S31500004280A4B21D782A4492B272452B4412D293F8F6
S3150000429001C0BCF1040FDED19D7885420CD093F8A5
S315000042A004C0C4441FFA8CF81D782A44D2B2724561
S315000042B02B44ECD3BDE8F081DD788D42EFD11E7939
S315000042C0F2E700BF94100020C8100020044B1888A5
S315000042D020B1044B9B68D879C0F34010704700BFEB
S315000042E09210002094100020024B9B68D879C0F3EE
S315000042F08010704794100020092800D9704738B5FF
S315000043000446154600F0ACFB032819D8DFE800F098
S31500004310110A020338BD2A462046BDE83840052169
S31500004320FEF7C6BF2A462046BDE83840042100F005
S315000043300FBC2A462046BDE83840032100F008BCE1
S315000043402A462046BDE838400721FEF7B1BF00BF28
S31500004350092800D9704770B504460E461546014631
S315000043601046FDF737FF2A463146204600F0ACFAE4
S31500004370012809D821462846FDF784FF214628460C
S31500004380BDE87040FFF726BA022809D12146284623
S31500004390FDF704FF21462846BDE87040FFF71ABA2C
S315000043A02A462046BDE870400721FEF781BF00BFC0
S315000043B038B5438CD3B1044600224FF4A973442088
S315000043C02260238403F0BAFF054678B121464422D1
S315000043D006F076FC05F006FD034629460520EB614E
S315000043E0FFF7C4FB044620B9204638BDFF2420460B
S315000043F038BD284604F04EF8204638BD092918D89D
S315000044000D4A0B4652F821209AB110B540F25312CC
S31500004410002492B090F824C001A90520ADF82630FA
S315000044208DF828C00194ADF82420FFF79FFB12B049
S3150000443010BDFF20704700BF7C0C002038B56FF41C
S31500004440AA74204415460F2814D8DFE800F020137C
S315000044501A141313131313131313131313080C46FD
S3150000446019462046FEF76CFE0122114B114923F82E
S3150000447014200D6038BD93F82400BDE83840FEF7DF
S31500004480ADBF93F82400BDE83840FEF793BF002285
S3150000449040F25513084905200A600B84FFF766FBB6
S315000044A080B20028E6D0FF22044B1A8038BD00BF38
S315000044B02411002020110020401100200C110020A2
S315000044C00021084B084A0948C3E90522C3E9072227
S315000044D0C3E90922C3E90011C3E90211D8621961CF
S315000044E0704700BF94100020513E0000553E00006A
S315000044F04A6830B4D2E90051D468D1B190680E4B05
S31500004500C3E90054C3E9021015690C4C0C480D4967
S31500004510127DC3E90454C3E906010B4C0B490C4850
S31500004520C3E908410B4983F83020C3E90A0130BCCE
S31500004530704791680846E2E794100020C5450000E0
S31500004540593E0000C53E0000853E0000A13E000029
S31500004550C13E00001D5A00002DE9F0470478944240
S315000045602BD2064617469A464FF000094FF0FF0831
S3150000457008E0BCF1050F16D095F800C06444A4B25B
S31500004580A7420DD9351995F801C0BCF1040FF0D139
S3150000459095F800C095F805906444A4B2A742F1D8F6
S315000045A04046BDE8F0874A465146284600F0A4FB3F
S315000045B0002818BF4FF00008DEE74FF0FF0840461E
S315000045C0BDE8F087F0B5274B04461A880E46012A47
S315000045D08DB035D003AFC02E234B24D09D68002D5F
S315000045E03AD002226A70DB681BB107225A7005B9FD
S315000045F0FEE7EB78AA7894F8240002EB032292B245
S31500004600019200F0FFFB23463146019A2846FFF748
S31500004610A3FF94F82430394601208DF80C30FFF7BB
S315000046204DF90DB0F0BDD3E90225CAB1072151708D
S31500004630DB68002BDBD002225A70002DD8D0D8E7D9
S31500004640002290F8241003AF8DF80C10062039468E
S315000046501A80FFF733F9BEE7DB68002BC5D1C7E741
S315000046602B46E6E7900E002094100020CB0711D5CC
S315000046700021024610B50446084600F0F1F9032869
S3150000468012D009D8022819D02046BDE810400021D2
S31500004690FDF7A0BD00F062BAFF2815D12146BDE89E
S315000046A010400720FFF79ABB20460021FDF73AFD90
S315000046B02146BDE810400520FFF790BB2046BDE827
S315000046C010400021FFF7D4B810BD00BFCB0700D5BE
S315000046D0704700F075BA00BFCB0717D50021024618
S315000046E010B50446084600F0EFF8022811D005D8A8
S315000046F02046BDE810400021FDF7F4BDFF2807D194
S315000047002146BDE810400720FFF768BB00F084BAD9
S3150000471010BD2046BDE810400021FFF7A9B800BF34
S31500004720164AF8B51688731C03F01F03138034016C
S31500004730EFF30383124A103B5BB252F82350A8787A
S31500004740FEF710FE40F251120E4BA01903EB800447
S31500004750D5E909672284AA78800000F12801223071
S3150000476018441944E76384F82420A663FEF76AFB1D
S315000047702146BDE8F8400520FFF712BA8411002053
S31500004780841E0020881100202DE9F04104461546BC
S31500004790104688462146FDF7E3F921462846FDF7EF
S315000047A019FD21462846FDF74FFD164E214628469F
S315000047B0FDF798FD21462846FDF73EFA56F8247087
S315000047C0F7B1114B214653F8243028463B61A7F830
S315000047D02880FDF7B5FF0022014656F824004368FD
S315000047E0798511464484984756F8240003F052FE12
S315000047F00020214646F82400BDE8F041FFF736BA0E
S31500004800BDE8F0817C0C0020940D002091F8241066
S315000048104FEAD00C104A01EB810101EB81010CF04B
S31500004820100C00F00F00012302EB81024CEA000C91
S3150000483003E00A2B02F10A020BD0518998B2012932
S3150000484003F10103F5D1918901F01F018C45F0D1E7
S315000048507047FF20704700BFCC0C00200020704737
S3150000486008B5FDF7F5F9C0F3C01008BD092800D951
S31500004870704770B50446114B014653F82050284640
S315000048802E69FDF76DF90E4BAA6843F824600D4BAF
S31500004890214643F824202846FDF79AFD214628465E
S315000048A0FDF74EFD20462A460021FFF751FD214621
S315000048B02846BDE87040FEF7DBBF00BF7C0C002039
S315000048C0940D0020BC0D00202DE9F04F092883B07F
S315000048D058D8154650EA010204460E4666D00A46E6
S315000048E0002301462846FDF74FF9FF284AD0214606
S315000048F02846FCF7E1FF0746DFF8DC90214628460C
S31500004900FEF778FF59F82430BB46BB422AD94FF050
S31500004910020821462846FEF763FF0346DFF8BCA0DF
S31500004920214628460193FDF71BF92B4631463846AA
S315000049305AF82420FEF70EFC59F824304AF82400D1
S315000049409B4525D8DB1B49F8243021462846FDF730
S315000049503FFD019B03F00303012B31D0404603B01A
S31500004960BDE8F08F43B39FB2B7FBF0F800FB1870B9
S315000049701FFA80F8B8F1000F2AD1002C08BF4FF0BB
S315000049800208C6E74FF0FF08404603B0BDE8F08FC7
S3150000499000233146284649F82430FDF751FB03042D
S315000049A0D3D431462846FDF785FBCEE720231146B2
S315000049B02846FDF7E9F898E71F464FF00108A8E7F3
S315000049C028462146FEF754FF404603B0BDE8F08F67
S315000049D04FF001089DE700BF940D0020BC0D00209C
S315000049E0092800D970471B4B70B553F82060044660
S315000049F0014630463569FDF7B3F80023164AB1681B
S31500004A0042F82450154A304642F8241021461A46E8
S31500004A10FDF7E8F821463046FEF7ECFE4DB1B5FB52
S31500004A20F0F200FB125595B92146304692B2FDF7D9
S31500004A30EFF821463046FEF71BFF21463046FDF7CC
S31500004A40ADFB21463046BDE87040FEF7C3BE0132DD
S31500004A50EAE700BF7C0C0020940D0020BC0D00206E
S31500004A6009282DE9F04734D8164604460A468946F1
S31500004A70002301463046FDF787F8FF2829D0324F3C
S31500004A80C0F30B0521463046FEF7B4FE57F8243036
S31500004A90AA46AB422DD33CD005B3B5FBF0F300FBE1
S31500004AA0135080B2002847D14FF002082846274D00
S31500004AB03346494655F82420FEF7B0FB45F8240056
S31500004AC057F824304046A3EB0A0347F82430BDE8E4
S31500004AD0F0874FF0FF084046BDE8F0872146304694
S31500004AE0FDF73EF84FF0010849463046FDF71AFB40
S31500004AF0E6E721463046FDF733F857F824304FF005
S31500004B0003089AB2924647F82450002DECD0154679
S31500004B10CCE74CB9B5FBF0F300FB135080B218B9E3
S31500004B202A464FF00208F0E721463046FDF718F80E
S31500004B304FF000082A46E8E721463046FDF710F810
S31500004B404FF00108B2E700BF940D0020BC0D002015
S31500004B50092800D97047FFF717BE00BF2DE9F843B3
S31500004B60012480460E462746DFF8509002E00134C5
S31500004B700A2C1AD007FA04F31E42A5B2F7D029462A
S31500004B804046FDF725FC59F82430002BEFD0294686
S31500004B904046FEF743FE102809D04246002128462B
S31500004BA00134FFF7A9FB0A2CE4D1BDE8F8832846B7
S31500004BB042460021FFF7CCFBD9E700BF7C0C002062
S31500004BC02DE9F843012480460D462746DFF8449038
S31500004BD007FA04F31D42A6B209D059F8243033B1BE
S31500004BE031464046FEF728FEB0F5404F04D001346A
S31500004BF00A2CEDD1BDE8F8834046FDF70DFC10F414
S31500004C00004F4246304614BF05210721FEF750FBF0
S31500004C10EDE700BF7C0C00202DE9F0470124064695
S31500004C200D462746DFF8C890DFF8C88007FA04F378
S31500004C301D421FFA84FA25D059F8243013B396F88A
S31500004C40243003EB830304EB430338F81330012BC2
S31500004C5018D051463046FEF7C3FD820736D451467A
S31500004C603046FDF76DFD430439D496F8243050469E
S31500004C7003EB830304EB43033246012128F8137048
S31500004C80FFF782FD0134062CD0D14FF00108DFF882
S31500004C90609008FA04F31D42A7B20ED059F82430EA
S31500004CA05BB139463046FEF79BFD10F0020F3246E7
S31500004CB0384607D00621FEF7FBFA01340A2CE8D164
S31500004CC0BDE8F0870121FFF75FFDF6E75046324663
S31500004CD006210134FEF7ECFA062CA7D1D5E751469A
S31500004CE030460134FDF7CEFA062C9FD1CDE700BF42
S31500004CF07C0C0020A40C00204378052B0AD130B58B
S31500004D00C37803F00303022B2BD0032B05D000231B
S31500004D10184630BD00231846704790F9023090F8C7
S31500004D2002C0002BF3DA022AF1D1642291F8245052
S31500004D30334902FB0512948F002CE8D10CF00F03C7
S31500004D4043F4004343F010038088D38701239D4238
S31500004D50A2F84200A2F8444093874FD10622134698
S31500004D6020E090F902C090F802E0BCF1000F20DBD1
S31500004D700A2ACCD1642291F82440214902FB04126C
S31500004D80958A002DC3D18088958350830EF00F003D
S31500004D9040F48540D082012084429082B8D11A46E0
S31500004DA047F6484402EB820201EB4202A2F8684051
S31500004DB0AEE70A2AABD14FF0640C91F824301049C3
S31500004DC00CFB031CBCF80A40002CA0D10EF00F020D
S31500004DD042F4844242F010028088ACF80C20012292
S31500004DE09342ACF81240ACF81000ACF80A2003D19C
S31500004DF01A4647F60844D5E7134689E7062387E7A8
S31500004E00CC0C002000B56FF0630E00210EFB00FEF7
S31500004E100E4B00EB800203F15A0C02EB820203EB0D
S31500004E2082030CEB820C0EF1720E5A89012A07D10D
S31500004E3001285981998108BF23F80E1019825982D9
S31500004E400A336345F1D15DF804FB00BFCC0C0020AA
S31500004E502DE9F041012464270546244E02E0013481
S31500004E600A2C2BD095F8242004EB840307FB02F2CE
S31500004E7002EB4303F35A012BF1D100212846FDF73B
S31500004E8021F81FFA84F800F00F00804518D00121A0
S31500004E902846FDF717F800F00F0080451ED00221C6
S31500004EA02846FDF70FF800F00F0080450FD0414669
S31500004EB028460134FCF726FD0A2CD3D1BDE8F08143
S31500004EC0002328461A461946FCF78CFEDFE7002326
S31500004ED0022228461946FCF785FEE8E70023012250
S31500004EE028461946FCF77EFED9E700BFCC0C002009
S31500004EF0F8B50124642705460B4E02E001340A2C5E
S31500004F0011D095F8242004EB840307FB02F202EB90
S31500004F104303F35A012BF1D1A1B228460134FCF721
S31500004F20ADFD0A2CEDD1F8BDCC0C002038B50446F9
S31500004F300C4D00F0BFF8FFF71BF92046FEF7AEFC5C
S31500004F406B691BB101460022204698472046002186
S31500004F50FDF7DAFA2B682046D979BDE83840FDF727
S31500004F6007BB00BF9410002010B504460A20FDF7C9
S31500004F70FDFE94F82400BDE81040FEF71BBA00BF02
S31500004F802DE9F0410546FCF789FE95F82400FEF769
S31500004F9025FA0023184A01241380184A6427184E5C
S31500004FA0138001E00A2C19D095F8243004EB840212
S31500004FB007FB03F303EB4203F35A1FFA84F8012BB2
S31500004FC004F10104EED12A4608214046FEF770F9A5
S31500004FD041462846FCF752FD0A2CE5D1094BDB6910
S31500004FE01BB100221E212846984795F82400BDE8EB
S31500004FF0F041FEF7D7B900BF921000200A11002039
S31500005000CC0C00209410002070B5044690F82400C3
S31500005010FEF708FA94F82400FDF782F905462046C3
S31500005020FCF76AFE6B0603D500F00300012809D0E1
S3150000503094F82400FEF71AFA94F82400BDE87040AC
S31500005040FEF704BA94F82400FEF7ACF900F034F841
S31500005050054B1B6A33B105492046BDE87040002266
S315000050600988184770BD00BF941000200A1100205F
S31500005070FEF76CB870B506463046FDF751F90546A1
S315000050800A20FDF76FFE3046FDF74AF904460A206E
S31500005090FDF768FE3046FDF743F985EA0403444010
S315000050A01C432306E8D415F0800F14BF402043208C
S315000050B070BD00BF704700BF704700BF70B50E4699
S315000050C000210C4640220546254805F006FE2146ED
S315000050D04FF4FF72234805F000FE234B234A1C6061
S315000050E05C60234B14801C80224B23491C80234B7D
S315000050F0234A1C80234B0C801C80234B21461C809A
S31500005100224B1460224834221C8005F0E6FD21461D
S315000051102822204805F0E1FD21460E2428221E48BB
S3150000512005F0DBFD1D4B03F5B4729C7124339A42E6
S31500005130FBD100241A4B21461C605C609C60DC603D
S315000051401C612822174805F0C8FD174A174B31463F
S31500005150284614801C80BDE87040FFF7C9B900BF1F
S31500005160C8100020940E0020141100203C110020CD
S315000051701E1100200E1100201C110020101100200D
S31500005180201100200811002038110020900E002068
S3150000519094100020BC0D0020940D00201C1A002045
S315000051A0241100207C0C0020921000200A110020FF
S315000051B02DE9F0410025174B174A1B88158003F48B
S315000051C07F43B3F5106F0ED0B3F5306F19D1134B83
S315000051D09B6AB3B1124A134914882A4631F814104F
S315000051E0BDE8F0411847104E104F04463088B7F816
S315000051F00080FEF7D1FF3388434502D0074B9B69F9
S315000052000BB9BDE8F0812A4620463988BDE8F04151
S31500005210184700BF1C1100203811002094100020F0
S315000052200E110020940E00201E1100209210002066
S315000052308E4B0246198801F47F43B3F5006F5AD0AE
S3150000524030B583B017D8002B31D0B3F5C06F35D148
S3150000525011F01F0338D1864B19880B0A013BCCB2DB
S31500005260062B2BD8DFE813F07900B500A6002A003C
S315000052702A00C6008600B3F5206F1FD101F01F017A
S3150000528001291BD17A4B1B88C3B97A4B1888012890
S3150000529014D1794B1B88FE2B10D8784C784934F8FA
S315000052A013300B7003B0BDE83040FEF72BBD704BDA
S315000052B01B881BB96F4C2488022C30D0104603B0D3
S315000052C0BDE83040FDF742BF012BF7D16A4B6D4870
S315000052D01B88674C674D83806B4B24880180DB6A93
S315000052E029884480C180002B00F09E80002103B0F5
S315000052F0BDE83040184760485D4BB0F800C01B88D9
S3150000530001F01F0043EA0C01014389B221B9594B50
S315000053101888012800F082801046FDF717BF5B4C05
S3150000532001F01F010129238000F0908002297DD021
S315000053300029C3D1504B1B88002BBFD10190FEF72B
S31500005340D3FF534B20701B88019A012B04BF40F0FA
S315000053500200207002204D49A4E7474B1B882343D7
S31500005360ACD14949434B096818880B78834299D8D0
S31500005370184697E70190FFF773FA0128019A9DD125
S315000053803D4B1B88234399D11046FEF787FA3E4BC7
S31500005390384CD3E90213C02818BF19462488C878A8
S315000053A08B78019A03EB002398B2A0427FF67AAF7E
S315000053B0204677E7344B93F83010A1427FF67EAF54
S315000053C019692C4B51F8241018880B788342CFD9D1
S315000053D068E7294B1B8823437FF470AF0190FEF7E3
S315000053E05DFA244C284B2488D3E90213C02808BF51
S315000053F01946D4E70190FFF733FA0128019A7FF4A2
S315000054005DAF1D4B1B8823437FF458AF1E49194BD4
S31500005410496818880B788342AAD943E71D4B1E4971
S315000054201B880B70FEF76EBC03B030BD124D2B8887
S315000054301B0733D190F824000192FDF7B1F810F064
S31500005440020F019A86D00123237083E70190FDF7AE
S3150000545017FE0128019A7FF431AFFEF7B7FE064B1F
S31500005460019A1B888342FFF475AF27E71C110020C1
S315000054701E110020101100200E110020940E002095
S31500005480081A00201411002094100020101A002081
S315000054900A110020921000200C1A00200190FDF73E
S315000054A0EFFD0128019A7FF409AF11462888FFF71E
S315000054B0ADF9FF280146019A3FF400AF1046FEF70A
S315000054C08FF910F0020F019ABDD143E7FDF73EBEFA
S315000054D0F0B5A64D04462A888DB002F47F43B3F595
S315000054E0A06F00F089801DD9B3F5106F00F095808C
S315000054F0B3F5306F09D1FDF7C3FD012805D12B881F
